{
	"contracts/BasicMath.sol": {
		"BasicMath": {
			"abi": [
				{
					"inputs": [
						{
							"internalType": "uint256",
							"name": "_a",
							"type": "uint256"
						},
						{
							"internalType": "uint256",
							"name": "_b",
							"type": "uint256"
						}
					],
					"name": "adder",
					"outputs": [
						{
							"internalType": "uint256",
							"name": "sum",
							"type": "uint256"
						},
						{
							"internalType": "bool",
							"name": "error",
							"type": "bool"
						}
					],
					"stateMutability": "pure",
					"type": "function"
				},
				{
					"inputs": [
						{
							"internalType": "uint256",
							"name": "_a",
							"type": "uint256"
						},
						{
							"internalType": "uint256",
							"name": "_b",
							"type": "uint256"
						}
					],
					"name": "subtractor",
					"outputs": [
						{
							"internalType": "uint256",
							"name": "difference",
							"type": "uint256"
						},
						{
							"internalType": "bool",
							"name": "error",
							"type": "bool"
						}
					],
					"stateMutability": "pure",
					"type": "function"
				}
			],
			"devdoc": {
				"kind": "dev",
				"methods": {},
				"version": 1
			},
			"evm": {
				"assembly": "    /* \"contracts/BasicMath.sol\":57:685  contract BasicMath {... */\n  mstore(0x40, 0x80)\n  callvalue\n  dup1\n  iszero\n  tag_1\n  jumpi\n  0x00\n  dup1\n  revert\ntag_1:\n  pop\n  dataSize(sub_0)\n  dup1\n  dataOffset(sub_0)\n  0x00\n  codecopy\n  0x00\n  return\nstop\n\nsub_0: assembly {\n        /* \"contracts/BasicMath.sol\":57:685  contract BasicMath {... */\n      mstore(0x40, 0x80)\n      callvalue\n      dup1\n      iszero\n      tag_1\n      jumpi\n      0x00\n      dup1\n      revert\n    tag_1:\n      pop\n      jumpi(tag_2, lt(calldatasize, 0x04))\n      shr(0xe0, calldataload(0x00))\n      dup1\n      0x06b034e9\n      eq\n      tag_3\n      jumpi\n      dup1\n      0x5270312a\n      eq\n      tag_4\n      jumpi\n    tag_2:\n      0x00\n      dup1\n      revert\n        /* \"contracts/BasicMath.sol\":83:370  function adder(uint _a, uint _b) external pure returns (uint sum, bool error) {... */\n    tag_3:\n      tag_5\n      0x04\n      dup1\n      calldatasize\n      sub\n      dup2\n      add\n      swap1\n      tag_6\n      swap2\n      swap1\n      tag_7\n      jump\t// in\n    tag_6:\n      tag_8\n      jump\t// in\n    tag_5:\n      mload(0x40)\n      tag_9\n      swap3\n      swap2\n      swap1\n      tag_10\n      jump\t// in\n    tag_9:\n      mload(0x40)\n      dup1\n      swap2\n      sub\n      swap1\n      return\n        /* \"contracts/BasicMath.sol\":376:683  function subtractor(uint _a, uint _b) external pure returns (uint difference, bool error) {... */\n    tag_4:\n      tag_11\n      0x04\n      dup1\n      calldatasize\n      sub\n      dup2\n      add\n      swap1\n      tag_12\n      swap2\n      swap1\n      tag_7\n      jump\t// in\n    tag_12:\n      tag_13\n      jump\t// in\n    tag_11:\n      mload(0x40)\n      tag_14\n      swap3\n      swap2\n      swap1\n      tag_10\n      jump\t// in\n    tag_14:\n      mload(0x40)\n      dup1\n      swap2\n      sub\n      swap1\n      return\n        /* \"contracts/BasicMath.sol\":83:370  function adder(uint _a, uint _b) external pure returns (uint sum, bool error) {... */\n    tag_8:\n        /* \"contracts/BasicMath.sol\":139:147  uint sum */\n      0x00\n        /* \"contracts/BasicMath.sol\":149:159  bool error */\n      dup1\n        /* \"contracts/BasicMath.sol\":205:207  _b */\n      dup3\n        /* \"contracts/BasicMath.sol\":200:202  _a */\n      dup5\n        /* \"contracts/BasicMath.sol\":200:207  _a + _b */\n      add\n        /* \"contracts/BasicMath.sol\":194:207  sum = _a + _b */\n      swap2\n      pop\n        /* \"contracts/BasicMath.sol\":231:233  _a */\n      dup4\n        /* \"contracts/BasicMath.sol\":224:227  sum */\n      dup3\n        /* \"contracts/BasicMath.sol\":224:233  sum >= _a */\n      lt\n      iszero\n        /* \"contracts/BasicMath.sol\":224:246  sum >= _a || sum >= _b */\n      dup1\n      tag_16\n      jumpi\n      pop\n        /* \"contracts/BasicMath.sol\":244:246  _b */\n      dup3\n        /* \"contracts/BasicMath.sol\":237:240  sum */\n      dup3\n        /* \"contracts/BasicMath.sol\":237:246  sum >= _b */\n      lt\n      iszero\n        /* \"contracts/BasicMath.sol\":224:246  sum >= _a || sum >= _b */\n    tag_16:\n        /* \"contracts/BasicMath.sol\":221:353  if(sum >= _a || sum >= _b){... */\n      iszero\n      tag_17\n      jumpi\n        /* \"contracts/BasicMath.sol\":273:276  sum */\n      dup2\n        /* \"contracts/BasicMath.sol\":278:283  false */\n      0x00\n        /* \"contracts/BasicMath.sol\":265:284  return (sum, false) */\n      swap2\n      pop\n      swap2\n      pop\n      jump(tag_15)\n        /* \"contracts/BasicMath.sol\":221:353  if(sum >= _a || sum >= _b){... */\n    tag_17:\n        /* \"contracts/BasicMath.sol\":330:331  0 */\n      0x00\n        /* \"contracts/BasicMath.sol\":333:337  true */\n      0x01\n        /* \"contracts/BasicMath.sol\":322:338  return (0, true) */\n      swap2\n      pop\n      swap2\n      pop\n        /* \"contracts/BasicMath.sol\":83:370  function adder(uint _a, uint _b) external pure returns (uint sum, bool error) {... */\n    tag_15:\n      swap3\n      pop\n      swap3\n      swap1\n      pop\n      jump\t// out\n        /* \"contracts/BasicMath.sol\":376:683  function subtractor(uint _a, uint _b) external pure returns (uint difference, bool error) {... */\n    tag_13:\n        /* \"contracts/BasicMath.sol\":437:452  uint difference */\n      0x00\n        /* \"contracts/BasicMath.sol\":454:464  bool error */\n      dup1\n        /* \"contracts/BasicMath.sol\":517:519  _b */\n      dup3\n        /* \"contracts/BasicMath.sol\":512:514  _a */\n      dup5\n        /* \"contracts/BasicMath.sol\":512:519  _a - _b */\n      sub\n        /* \"contracts/BasicMath.sol\":499:519  difference = _a - _b */\n      swap2\n      pop\n        /* \"contracts/BasicMath.sol\":550:552  _a */\n      dup4\n        /* \"contracts/BasicMath.sol\":536:546  difference */\n      dup3\n        /* \"contracts/BasicMath.sol\":536:552  difference <= _a */\n      gt\n        /* \"contracts/BasicMath.sol\":533:666  if(difference <= _a){... */\n      tag_20\n      jumpi\n        /* \"contracts/BasicMath.sol\":579:589  difference */\n      dup2\n        /* \"contracts/BasicMath.sol\":591:596  false */\n      0x00\n        /* \"contracts/BasicMath.sol\":571:597  return (difference, false) */\n      swap2\n      pop\n      swap2\n      pop\n      jump(tag_19)\n        /* \"contracts/BasicMath.sol\":533:666  if(difference <= _a){... */\n    tag_20:\n        /* \"contracts/BasicMath.sol\":643:644  0 */\n      0x00\n        /* \"contracts/BasicMath.sol\":646:650  true */\n      0x01\n        /* \"contracts/BasicMath.sol\":635:651  return (0, true) */\n      swap2\n      pop\n      swap2\n      pop\n        /* \"contracts/BasicMath.sol\":376:683  function subtractor(uint _a, uint _b) external pure returns (uint difference, bool error) {... */\n    tag_19:\n      swap3\n      pop\n      swap3\n      swap1\n      pop\n      jump\t// out\n        /* \"#utility.yul\":88:205   */\n    tag_23:\n        /* \"#utility.yul\":197:198   */\n      0x00\n        /* \"#utility.yul\":194:195   */\n      dup1\n        /* \"#utility.yul\":187:199   */\n      revert\n        /* \"#utility.yul\":334:411   */\n    tag_25:\n        /* \"#utility.yul\":371:378   */\n      0x00\n        /* \"#utility.yul\":400:405   */\n      dup2\n        /* \"#utility.yul\":389:405   */\n      swap1\n      pop\n        /* \"#utility.yul\":334:411   */\n      swap2\n      swap1\n      pop\n      jump\t// out\n        /* \"#utility.yul\":417:539   */\n    tag_26:\n        /* \"#utility.yul\":490:514   */\n      tag_37\n        /* \"#utility.yul\":508:513   */\n      dup2\n        /* \"#utility.yul\":490:514   */\n      tag_25\n      jump\t// in\n    tag_37:\n        /* \"#utility.yul\":483:488   */\n      dup2\n        /* \"#utility.yul\":480:515   */\n      eq\n        /* \"#utility.yul\":470:533   */\n      tag_38\n      jumpi\n        /* \"#utility.yul\":529:530   */\n      0x00\n        /* \"#utility.yul\":526:527   */\n      dup1\n        /* \"#utility.yul\":519:531   */\n      revert\n        /* \"#utility.yul\":470:533   */\n    tag_38:\n        /* \"#utility.yul\":417:539   */\n      pop\n      jump\t// out\n        /* \"#utility.yul\":545:684   */\n    tag_27:\n        /* \"#utility.yul\":591:596   */\n      0x00\n        /* \"#utility.yul\":629:635   */\n      dup2\n        /* \"#utility.yul\":616:636   */\n      calldataload\n        /* \"#utility.yul\":607:636   */\n      swap1\n      pop\n        /* \"#utility.yul\":645:678   */\n      tag_40\n        /* \"#utility.yul\":672:677   */\n      dup2\n        /* \"#utility.yul\":645:678   */\n      tag_26\n      jump\t// in\n    tag_40:\n        /* \"#utility.yul\":545:684   */\n      swap3\n      swap2\n      pop\n      pop\n      jump\t// out\n        /* \"#utility.yul\":690:1164   */\n    tag_7:\n        /* \"#utility.yul\":758:764   */\n      0x00\n        /* \"#utility.yul\":766:772   */\n      dup1\n        /* \"#utility.yul\":815:817   */\n      0x40\n        /* \"#utility.yul\":803:812   */\n      dup4\n        /* \"#utility.yul\":794:801   */\n      dup6\n        /* \"#utility.yul\":790:813   */\n      sub\n        /* \"#utility.yul\":786:818   */\n      slt\n        /* \"#utility.yul\":783:902   */\n      iszero\n      tag_42\n      jumpi\n        /* \"#utility.yul\":821:900   */\n      tag_43\n      tag_23\n      jump\t// in\n    tag_43:\n        /* \"#utility.yul\":783:902   */\n    tag_42:\n        /* \"#utility.yul\":941:942   */\n      0x00\n        /* \"#utility.yul\":966:1019   */\n      tag_44\n        /* \"#utility.yul\":1011:1018   */\n      dup6\n        /* \"#utility.yul\":1002:1008   */\n      dup3\n        /* \"#utility.yul\":991:1000   */\n      dup7\n        /* \"#utility.yul\":987:1009   */\n      add\n        /* \"#utility.yul\":966:1019   */\n      tag_27\n      jump\t// in\n    tag_44:\n        /* \"#utility.yul\":956:1019   */\n      swap3\n      pop\n        /* \"#utility.yul\":912:1029   */\n      pop\n        /* \"#utility.yul\":1068:1070   */\n      0x20\n        /* \"#utility.yul\":1094:1147   */\n      tag_45\n        /* \"#utility.yul\":1139:1146   */\n      dup6\n        /* \"#utility.yul\":1130:1136   */\n      dup3\n        /* \"#utility.yul\":1119:1128   */\n      dup7\n        /* \"#utility.yul\":1115:1137   */\n      add\n        /* \"#utility.yul\":1094:1147   */\n      tag_27\n      jump\t// in\n    tag_45:\n        /* \"#utility.yul\":1084:1147   */\n      swap2\n      pop\n        /* \"#utility.yul\":1039:1157   */\n      pop\n        /* \"#utility.yul\":690:1164   */\n      swap3\n      pop\n      swap3\n      swap1\n      pop\n      jump\t// out\n        /* \"#utility.yul\":1170:1288   */\n    tag_28:\n        /* \"#utility.yul\":1257:1281   */\n      tag_47\n        /* \"#utility.yul\":1275:1280   */\n      dup2\n        /* \"#utility.yul\":1257:1281   */\n      tag_25\n      jump\t// in\n    tag_47:\n        /* \"#utility.yul\":1252:1255   */\n      dup3\n        /* \"#utility.yul\":1245:1282   */\n      mstore\n        /* \"#utility.yul\":1170:1288   */\n      pop\n      pop\n      jump\t// out\n        /* \"#utility.yul\":1294:1384   */\n    tag_29:\n        /* \"#utility.yul\":1328:1335   */\n      0x00\n        /* \"#utility.yul\":1371:1376   */\n      dup2\n        /* \"#utility.yul\":1364:1377   */\n      iszero\n        /* \"#utility.yul\":1357:1378   */\n      iszero\n        /* \"#utility.yul\":1346:1378   */\n      swap1\n      pop\n        /* \"#utility.yul\":1294:1384   */\n      swap2\n      swap1\n      pop\n      jump\t// out\n        /* \"#utility.yul\":1390:1499   */\n    tag_30:\n        /* \"#utility.yul\":1471:1492   */\n      tag_50\n        /* \"#utility.yul\":1486:1491   */\n      dup2\n        /* \"#utility.yul\":1471:1492   */\n      tag_29\n      jump\t// in\n    tag_50:\n        /* \"#utility.yul\":1466:1469   */\n      dup3\n        /* \"#utility.yul\":1459:1493   */\n      mstore\n        /* \"#utility.yul\":1390:1499   */\n      pop\n      pop\n      jump\t// out\n        /* \"#utility.yul\":1505:1825   */\n    tag_10:\n        /* \"#utility.yul\":1620:1624   */\n      0x00\n        /* \"#utility.yul\":1658:1660   */\n      0x40\n        /* \"#utility.yul\":1647:1656   */\n      dup3\n        /* \"#utility.yul\":1643:1661   */\n      add\n        /* \"#utility.yul\":1635:1661   */\n      swap1\n      pop\n        /* \"#utility.yul\":1671:1742   */\n      tag_52\n        /* \"#utility.yul\":1739:1740   */\n      0x00\n        /* \"#utility.yul\":1728:1737   */\n      dup4\n        /* \"#utility.yul\":1724:1741   */\n      add\n        /* \"#utility.yul\":1715:1721   */\n      dup6\n        /* \"#utility.yul\":1671:1742   */\n      tag_28\n      jump\t// in\n    tag_52:\n        /* \"#utility.yul\":1752:1818   */\n      tag_53\n        /* \"#utility.yul\":1814:1816   */\n      0x20\n        /* \"#utility.yul\":1803:1812   */\n      dup4\n        /* \"#utility.yul\":1799:1817   */\n      add\n        /* \"#utility.yul\":1790:1796   */\n      dup5\n        /* \"#utility.yul\":1752:1818   */\n      tag_30\n      jump\t// in\n    tag_53:\n        /* \"#utility.yul\":1505:1825   */\n      swap4\n      swap3\n      pop\n      pop\n      pop\n      jump\t// out\n\n    auxdata: 0xa2646970667358221220ae6b94420e04836ddb08f5b6c2b908e67cef1f4d5ba762fc9cf28b73f1b0bf9664736f6c634300081a0033\n}\n",
				"bytecode": {
					"linkReferences": {},
					"object": "6080604052348015600e575f80fd5b506101f28061001c5f395ff3fe608060405234801561000f575f80fd5b5060043610610034575f3560e01c806306b034e9146100385780635270312a14610069575b5f80fd5b610052600480360381019061004d919061012e565b61009a565b604051610060929190610195565b60405180910390f35b610083600480360381019061007e919061012e565b6100cf565b604051610091929190610195565b60405180910390f35b5f80828401915083821015806100b05750828210155b156100c057815f915091506100c8565b5f6001915091505b9250929050565b5f8082840391508382116100e857815f915091506100f0565b5f6001915091505b9250929050565b5f80fd5b5f819050919050565b61010d816100fb565b8114610117575f80fd5b50565b5f8135905061012881610104565b92915050565b5f8060408385031215610144576101436100f7565b5b5f6101518582860161011a565b92505060206101628582860161011a565b9150509250929050565b610175816100fb565b82525050565b5f8115159050919050565b61018f8161017b565b82525050565b5f6040820190506101a85f83018561016c565b6101b56020830184610186565b939250505056fea2646970667358221220ae6b94420e04836ddb08f5b6c2b908e67cef1f4d5ba762fc9cf28b73f1b0bf9664736f6c634300081a0033",
					"opcodes": "PUSH1 0x80 PUSH1 0x40 MSTORE CALLVALUE DUP1 ISZERO PUSH1 0xE JUMPI PUSH0 DUP1 REVERT JUMPDEST POP PUSH2 0x1F2 DUP1 PUSH2 0x1C PUSH0 CODECOPY PUSH0 RETURN INVALID PUSH1 0x80 PUSH1 0x40 MSTORE CALLVALUE DUP1 ISZERO PUSH2 0xF JUMPI PUSH0 DUP1 REVERT JUMPDEST POP PUSH1 0x4 CALLDATASIZE LT PUSH2 0x34 JUMPI PUSH0 CALLDATALOAD PUSH1 0xE0 SHR DUP1 PUSH4 0x6B034E9 EQ PUSH2 0x38 JUMPI DUP1 PUSH4 0x5270312A EQ PUSH2 0x69 JUMPI JUMPDEST PUSH0 DUP1 REVERT JUMPDEST PUSH2 0x52 PUSH1 0x4 DUP1 CALLDATASIZE SUB DUP2 ADD SWAP1 PUSH2 0x4D SWAP2 SWAP1 PUSH2 0x12E JUMP JUMPDEST PUSH2 0x9A JUMP JUMPDEST PUSH1 0x40 MLOAD PUSH2 0x60 SWAP3 SWAP2 SWAP1 PUSH2 0x195 JUMP JUMPDEST PUSH1 0x40 MLOAD DUP1 SWAP2 SUB SWAP1 RETURN JUMPDEST PUSH2 0x83 PUSH1 0x4 DUP1 CALLDATASIZE SUB DUP2 ADD SWAP1 PUSH2 0x7E SWAP2 SWAP1 PUSH2 0x12E JUMP JUMPDEST PUSH2 0xCF JUMP JUMPDEST PUSH1 0x40 MLOAD PUSH2 0x91 SWAP3 SWAP2 SWAP1 PUSH2 0x195 JUMP JUMPDEST PUSH1 0x40 MLOAD DUP1 SWAP2 SUB SWAP1 RETURN JUMPDEST PUSH0 DUP1 DUP3 DUP5 ADD SWAP2 POP DUP4 DUP3 LT ISZERO DUP1 PUSH2 0xB0 JUMPI POP DUP3 DUP3 LT ISZERO JUMPDEST ISZERO PUSH2 0xC0 JUMPI DUP2 PUSH0 SWAP2 POP SWAP2 POP PUSH2 0xC8 JUMP JUMPDEST PUSH0 PUSH1 0x1 SWAP2 POP SWAP2 POP JUMPDEST SWAP3 POP SWAP3 SWAP1 POP JUMP JUMPDEST PUSH0 DUP1 DUP3 DUP5 SUB SWAP2 POP DUP4 DUP3 GT PUSH2 0xE8 JUMPI DUP2 PUSH0 SWAP2 POP SWAP2 POP PUSH2 0xF0 JUMP JUMPDEST PUSH0 PUSH1 0x1 SWAP2 POP SWAP2 POP JUMPDEST SWAP3 POP SWAP3 SWAP1 POP JUMP JUMPDEST PUSH0 DUP1 REVERT JUMPDEST PUSH0 DUP2 SWAP1 POP SWAP2 SWAP1 POP JUMP JUMPDEST PUSH2 0x10D DUP2 PUSH2 0xFB JUMP JUMPDEST DUP2 EQ PUSH2 0x117 JUMPI PUSH0 DUP1 REVERT JUMPDEST POP JUMP JUMPDEST PUSH0 DUP2 CALLDATALOAD SWAP1 POP PUSH2 0x128 DUP2 PUSH2 0x104 JUMP JUMPDEST SWAP3 SWAP2 POP POP JUMP JUMPDEST PUSH0 DUP1 PUSH1 0x40 DUP4 DUP6 SUB SLT ISZERO PUSH2 0x144 JUMPI PUSH2 0x143 PUSH2 0xF7 JUMP JUMPDEST JUMPDEST PUSH0 PUSH2 0x151 DUP6 DUP3 DUP7 ADD PUSH2 0x11A JUMP JUMPDEST SWAP3 POP POP PUSH1 0x20 PUSH2 0x162 DUP6 DUP3 DUP7 ADD PUSH2 0x11A JUMP JUMPDEST SWAP2 POP POP SWAP3 POP SWAP3 SWAP1 POP JUMP JUMPDEST PUSH2 0x175 DUP2 PUSH2 0xFB JUMP JUMPDEST DUP3 MSTORE POP POP JUMP JUMPDEST PUSH0 DUP2 ISZERO ISZERO SWAP1 POP SWAP2 SWAP1 POP JUMP JUMPDEST PUSH2 0x18F DUP2 PUSH2 0x17B JUMP JUMPDEST DUP3 MSTORE POP POP JUMP JUMPDEST PUSH0 PUSH1 0x40 DUP3 ADD SWAP1 POP PUSH2 0x1A8 PUSH0 DUP4 ADD DUP6 PUSH2 0x16C JUMP JUMPDEST PUSH2 0x1B5 PUSH1 0x20 DUP4 ADD DUP5 PUSH2 0x186 JUMP JUMPDEST SWAP4 SWAP3 POP POP POP JUMP INVALID LOG2 PUSH5 0x6970667358 0x22 SLT KECCAK256 0xAE PUSH12 0x94420E04836DDB08F5B6C2B9 ADDMOD 0xE6 PUSH29 0xEF1F4D5BA762FC9CF28B73F1B0BF9664736F6C634300081A0033000000 "
				},
				"gasEstimates": {
					"creation": {
						"codeDepositCost": "99600",
						"executionCost": "145",
						"totalCost": "99745"
					},
					"external": {
						"adder(uint256,uint256)": "infinite",
						"subtractor(uint256,uint256)": "infinite"
					}
				},
				"methodIdentifiers": {
					"adder(uint256,uint256)": "06b034e9",
					"subtractor(uint256,uint256)": "5270312a"
				}
			},
			"storageLayout": {
				"storage": [],
				"types": null
			},
			"userdoc": {
				"kind": "user",
				"methods": {},
				"version": 1
			}
		}
	}
}