{
	"contracts/BasicMath.sol": {
		"BasicMath": {
			"abi": [
				{
					"inputs": [
						{
							"internalType": "uint256",
							"name": "_a",
							"type": "uint256"
						},
						{
							"internalType": "uint256",
							"name": "_b",
							"type": "uint256"
						}
					],
					"name": "adder",
					"outputs": [
						{
							"internalType": "uint256",
							"name": "sum",
							"type": "uint256"
						},
						{
							"internalType": "bool",
							"name": "error",
							"type": "bool"
						}
					],
					"stateMutability": "pure",
					"type": "function"
				},
				{
					"inputs": [
						{
							"internalType": "uint8",
							"name": "_a",
							"type": "uint8"
						},
						{
							"internalType": "uint8",
							"name": "_b",
							"type": "uint8"
						}
					],
					"name": "subtractor",
					"outputs": [
						{
							"internalType": "uint256",
							"name": "difference",
							"type": "uint256"
						},
						{
							"internalType": "bool",
							"name": "error",
							"type": "bool"
						}
					],
					"stateMutability": "pure",
					"type": "function"
				}
			],
			"devdoc": {
				"kind": "dev",
				"methods": {},
				"version": 1
			},
			"evm": {
				"assembly": "    /* \"contracts/BasicMath.sol\":57:687  contract BasicMath {... */\n  mstore(0x40, 0x80)\n  callvalue\n  dup1\n  iszero\n  tag_1\n  jumpi\n  0x00\n  dup1\n  revert\ntag_1:\n  pop\n  dataSize(sub_0)\n  dup1\n  dataOffset(sub_0)\n  0x00\n  codecopy\n  0x00\n  return\nstop\n\nsub_0: assembly {\n        /* \"contracts/BasicMath.sol\":57:687  contract BasicMath {... */\n      mstore(0x40, 0x80)\n      callvalue\n      dup1\n      iszero\n      tag_1\n      jumpi\n      0x00\n      dup1\n      revert\n    tag_1:\n      pop\n      jumpi(tag_2, lt(calldatasize, 0x04))\n      shr(0xe0, calldataload(0x00))\n      dup1\n      0x01f168a2\n      eq\n      tag_3\n      jumpi\n      dup1\n      0x06b034e9\n      eq\n      tag_4\n      jumpi\n    tag_2:\n      0x00\n      dup1\n      revert\n        /* \"contracts/BasicMath.sol\":376:685  function subtractor(uint8 _a, uint8 _b) external pure returns (uint difference, bool error) {... */\n    tag_3:\n      tag_5\n      0x04\n      dup1\n      calldatasize\n      sub\n      dup2\n      add\n      swap1\n      tag_6\n      swap2\n      swap1\n      tag_7\n      jump\t// in\n    tag_6:\n      tag_8\n      jump\t// in\n    tag_5:\n      mload(0x40)\n      tag_9\n      swap3\n      swap2\n      swap1\n      tag_10\n      jump\t// in\n    tag_9:\n      mload(0x40)\n      dup1\n      swap2\n      sub\n      swap1\n      return\n        /* \"contracts/BasicMath.sol\":83:370  function adder(uint _a, uint _b) external pure returns (uint sum, bool error) {... */\n    tag_4:\n      tag_11\n      0x04\n      dup1\n      calldatasize\n      sub\n      dup2\n      add\n      swap1\n      tag_12\n      swap2\n      swap1\n      tag_13\n      jump\t// in\n    tag_12:\n      tag_14\n      jump\t// in\n    tag_11:\n      mload(0x40)\n      tag_15\n      swap3\n      swap2\n      swap1\n      tag_10\n      jump\t// in\n    tag_15:\n      mload(0x40)\n      dup1\n      swap2\n      sub\n      swap1\n      return\n        /* \"contracts/BasicMath.sol\":376:685  function subtractor(uint8 _a, uint8 _b) external pure returns (uint difference, bool error) {... */\n    tag_8:\n        /* \"contracts/BasicMath.sol\":439:454  uint difference */\n      0x00\n        /* \"contracts/BasicMath.sol\":456:466  bool error */\n      dup1\n        /* \"contracts/BasicMath.sol\":519:521  _b */\n      dup3\n        /* \"contracts/BasicMath.sol\":514:516  _a */\n      dup5\n        /* \"contracts/BasicMath.sol\":514:521  _a - _b */\n      sub\n        /* \"contracts/BasicMath.sol\":501:521  difference = _a - _b */\n      0xff\n      and\n      swap2\n      pop\n        /* \"contracts/BasicMath.sol\":552:554  _a */\n      dup4\n        /* \"contracts/BasicMath.sol\":538:554  difference <= _a */\n      0xff\n      and\n        /* \"contracts/BasicMath.sol\":538:548  difference */\n      dup3\n        /* \"contracts/BasicMath.sol\":538:554  difference <= _a */\n      gt\n        /* \"contracts/BasicMath.sol\":535:668  if(difference <= _a){... */\n      tag_17\n      jumpi\n        /* \"contracts/BasicMath.sol\":581:591  difference */\n      dup2\n        /* \"contracts/BasicMath.sol\":593:598  false */\n      0x00\n        /* \"contracts/BasicMath.sol\":573:599  return (difference, false) */\n      swap2\n      pop\n      swap2\n      pop\n      jump(tag_16)\n        /* \"contracts/BasicMath.sol\":535:668  if(difference <= _a){... */\n    tag_17:\n        /* \"contracts/BasicMath.sol\":645:646  0 */\n      0x00\n        /* \"contracts/BasicMath.sol\":648:652  true */\n      0x01\n        /* \"contracts/BasicMath.sol\":637:653  return (0, true) */\n      swap2\n      pop\n      swap2\n      pop\n        /* \"contracts/BasicMath.sol\":376:685  function subtractor(uint8 _a, uint8 _b) external pure returns (uint difference, bool error) {... */\n    tag_16:\n      swap3\n      pop\n      swap3\n      swap1\n      pop\n      jump\t// out\n        /* \"contracts/BasicMath.sol\":83:370  function adder(uint _a, uint _b) external pure returns (uint sum, bool error) {... */\n    tag_14:\n        /* \"contracts/BasicMath.sol\":139:147  uint sum */\n      0x00\n        /* \"contracts/BasicMath.sol\":149:159  bool error */\n      dup1\n        /* \"contracts/BasicMath.sol\":205:207  _b */\n      dup3\n        /* \"contracts/BasicMath.sol\":200:202  _a */\n      dup5\n        /* \"contracts/BasicMath.sol\":200:207  _a + _b */\n      add\n        /* \"contracts/BasicMath.sol\":194:207  sum = _a + _b */\n      swap2\n      pop\n        /* \"contracts/BasicMath.sol\":231:233  _a */\n      dup4\n        /* \"contracts/BasicMath.sol\":224:227  sum */\n      dup3\n        /* \"contracts/BasicMath.sol\":224:233  sum >= _a */\n      lt\n      iszero\n        /* \"contracts/BasicMath.sol\":224:246  sum >= _a || sum >= _b */\n      dup1\n      tag_20\n      jumpi\n      pop\n        /* \"contracts/BasicMath.sol\":244:246  _b */\n      dup3\n        /* \"contracts/BasicMath.sol\":237:240  sum */\n      dup3\n        /* \"contracts/BasicMath.sol\":237:246  sum >= _b */\n      lt\n      iszero\n        /* \"contracts/BasicMath.sol\":224:246  sum >= _a || sum >= _b */\n    tag_20:\n        /* \"contracts/BasicMath.sol\":221:353  if(sum >= _a || sum >= _b){... */\n      iszero\n      tag_21\n      jumpi\n        /* \"contracts/BasicMath.sol\":273:276  sum */\n      dup2\n        /* \"contracts/BasicMath.sol\":278:283  false */\n      0x00\n        /* \"contracts/BasicMath.sol\":265:284  return (sum, false) */\n      swap2\n      pop\n      swap2\n      pop\n      jump(tag_19)\n        /* \"contracts/BasicMath.sol\":221:353  if(sum >= _a || sum >= _b){... */\n    tag_21:\n        /* \"contracts/BasicMath.sol\":330:331  0 */\n      0x00\n        /* \"contracts/BasicMath.sol\":333:337  true */\n      0x01\n        /* \"contracts/BasicMath.sol\":322:338  return (0, true) */\n      swap2\n      pop\n      swap2\n      pop\n        /* \"contracts/BasicMath.sol\":83:370  function adder(uint _a, uint _b) external pure returns (uint sum, bool error) {... */\n    tag_19:\n      swap3\n      pop\n      swap3\n      swap1\n      pop\n      jump\t// out\n        /* \"#utility.yul\":88:205   */\n    tag_24:\n        /* \"#utility.yul\":197:198   */\n      0x00\n        /* \"#utility.yul\":194:195   */\n      dup1\n        /* \"#utility.yul\":187:199   */\n      revert\n        /* \"#utility.yul\":334:420   */\n    tag_26:\n        /* \"#utility.yul\":369:376   */\n      0x00\n        /* \"#utility.yul\":409:413   */\n      0xff\n        /* \"#utility.yul\":402:407   */\n      dup3\n        /* \"#utility.yul\":398:414   */\n      and\n        /* \"#utility.yul\":387:414   */\n      swap1\n      pop\n        /* \"#utility.yul\":334:420   */\n      swap2\n      swap1\n      pop\n      jump\t// out\n        /* \"#utility.yul\":426:544   */\n    tag_27:\n        /* \"#utility.yul\":497:519   */\n      tag_41\n        /* \"#utility.yul\":513:518   */\n      dup2\n        /* \"#utility.yul\":497:519   */\n      tag_26\n      jump\t// in\n    tag_41:\n        /* \"#utility.yul\":490:495   */\n      dup2\n        /* \"#utility.yul\":487:520   */\n      eq\n        /* \"#utility.yul\":477:538   */\n      tag_42\n      jumpi\n        /* \"#utility.yul\":534:535   */\n      0x00\n        /* \"#utility.yul\":531:532   */\n      dup1\n        /* \"#utility.yul\":524:536   */\n      revert\n        /* \"#utility.yul\":477:538   */\n    tag_42:\n        /* \"#utility.yul\":426:544   */\n      pop\n      jump\t// out\n        /* \"#utility.yul\":550:685   */\n    tag_28:\n        /* \"#utility.yul\":594:599   */\n      0x00\n        /* \"#utility.yul\":632:638   */\n      dup2\n        /* \"#utility.yul\":619:639   */\n      calldataload\n        /* \"#utility.yul\":610:639   */\n      swap1\n      pop\n        /* \"#utility.yul\":648:679   */\n      tag_44\n        /* \"#utility.yul\":673:678   */\n      dup2\n        /* \"#utility.yul\":648:679   */\n      tag_27\n      jump\t// in\n    tag_44:\n        /* \"#utility.yul\":550:685   */\n      swap3\n      swap2\n      pop\n      pop\n      jump\t// out\n        /* \"#utility.yul\":691:1157   */\n    tag_7:\n        /* \"#utility.yul\":755:761   */\n      0x00\n        /* \"#utility.yul\":763:769   */\n      dup1\n        /* \"#utility.yul\":812:814   */\n      0x40\n        /* \"#utility.yul\":800:809   */\n      dup4\n        /* \"#utility.yul\":791:798   */\n      dup6\n        /* \"#utility.yul\":787:810   */\n      sub\n        /* \"#utility.yul\":783:815   */\n      slt\n        /* \"#utility.yul\":780:899   */\n      iszero\n      tag_46\n      jumpi\n        /* \"#utility.yul\":818:897   */\n      tag_47\n      tag_24\n      jump\t// in\n    tag_47:\n        /* \"#utility.yul\":780:899   */\n    tag_46:\n        /* \"#utility.yul\":938:939   */\n      0x00\n        /* \"#utility.yul\":963:1014   */\n      tag_48\n        /* \"#utility.yul\":1006:1013   */\n      dup6\n        /* \"#utility.yul\":997:1003   */\n      dup3\n        /* \"#utility.yul\":986:995   */\n      dup7\n        /* \"#utility.yul\":982:1004   */\n      add\n        /* \"#utility.yul\":963:1014   */\n      tag_28\n      jump\t// in\n    tag_48:\n        /* \"#utility.yul\":953:1014   */\n      swap3\n      pop\n        /* \"#utility.yul\":909:1024   */\n      pop\n        /* \"#utility.yul\":1063:1065   */\n      0x20\n        /* \"#utility.yul\":1089:1140   */\n      tag_49\n        /* \"#utility.yul\":1132:1139   */\n      dup6\n        /* \"#utility.yul\":1123:1129   */\n      dup3\n        /* \"#utility.yul\":1112:1121   */\n      dup7\n        /* \"#utility.yul\":1108:1130   */\n      add\n        /* \"#utility.yul\":1089:1140   */\n      tag_28\n      jump\t// in\n    tag_49:\n        /* \"#utility.yul\":1079:1140   */\n      swap2\n      pop\n        /* \"#utility.yul\":1034:1150   */\n      pop\n        /* \"#utility.yul\":691:1157   */\n      swap3\n      pop\n      swap3\n      swap1\n      pop\n      jump\t// out\n        /* \"#utility.yul\":1163:1240   */\n    tag_29:\n        /* \"#utility.yul\":1200:1207   */\n      0x00\n        /* \"#utility.yul\":1229:1234   */\n      dup2\n        /* \"#utility.yul\":1218:1234   */\n      swap1\n      pop\n        /* \"#utility.yul\":1163:1240   */\n      swap2\n      swap1\n      pop\n      jump\t// out\n        /* \"#utility.yul\":1246:1364   */\n    tag_30:\n        /* \"#utility.yul\":1333:1357   */\n      tag_52\n        /* \"#utility.yul\":1351:1356   */\n      dup2\n        /* \"#utility.yul\":1333:1357   */\n      tag_29\n      jump\t// in\n    tag_52:\n        /* \"#utility.yul\":1328:1331   */\n      dup3\n        /* \"#utility.yul\":1321:1358   */\n      mstore\n        /* \"#utility.yul\":1246:1364   */\n      pop\n      pop\n      jump\t// out\n        /* \"#utility.yul\":1370:1460   */\n    tag_31:\n        /* \"#utility.yul\":1404:1411   */\n      0x00\n        /* \"#utility.yul\":1447:1452   */\n      dup2\n        /* \"#utility.yul\":1440:1453   */\n      iszero\n        /* \"#utility.yul\":1433:1454   */\n      iszero\n        /* \"#utility.yul\":1422:1454   */\n      swap1\n      pop\n        /* \"#utility.yul\":1370:1460   */\n      swap2\n      swap1\n      pop\n      jump\t// out\n        /* \"#utility.yul\":1466:1575   */\n    tag_32:\n        /* \"#utility.yul\":1547:1568   */\n      tag_55\n        /* \"#utility.yul\":1562:1567   */\n      dup2\n        /* \"#utility.yul\":1547:1568   */\n      tag_31\n      jump\t// in\n    tag_55:\n        /* \"#utility.yul\":1542:1545   */\n      dup3\n        /* \"#utility.yul\":1535:1569   */\n      mstore\n        /* \"#utility.yul\":1466:1575   */\n      pop\n      pop\n      jump\t// out\n        /* \"#utility.yul\":1581:1901   */\n    tag_10:\n        /* \"#utility.yul\":1696:1700   */\n      0x00\n        /* \"#utility.yul\":1734:1736   */\n      0x40\n        /* \"#utility.yul\":1723:1732   */\n      dup3\n        /* \"#utility.yul\":1719:1737   */\n      add\n        /* \"#utility.yul\":1711:1737   */\n      swap1\n      pop\n        /* \"#utility.yul\":1747:1818   */\n      tag_57\n        /* \"#utility.yul\":1815:1816   */\n      0x00\n        /* \"#utility.yul\":1804:1813   */\n      dup4\n        /* \"#utility.yul\":1800:1817   */\n      add\n        /* \"#utility.yul\":1791:1797   */\n      dup6\n        /* \"#utility.yul\":1747:1818   */\n      tag_30\n      jump\t// in\n    tag_57:\n        /* \"#utility.yul\":1828:1894   */\n      tag_58\n        /* \"#utility.yul\":1890:1892   */\n      0x20\n        /* \"#utility.yul\":1879:1888   */\n      dup4\n        /* \"#utility.yul\":1875:1893   */\n      add\n        /* \"#utility.yul\":1866:1872   */\n      dup5\n        /* \"#utility.yul\":1828:1894   */\n      tag_32\n      jump\t// in\n    tag_58:\n        /* \"#utility.yul\":1581:1901   */\n      swap4\n      swap3\n      pop\n      pop\n      pop\n      jump\t// out\n        /* \"#utility.yul\":1907:2029   */\n    tag_33:\n        /* \"#utility.yul\":1980:2004   */\n      tag_60\n        /* \"#utility.yul\":1998:2003   */\n      dup2\n        /* \"#utility.yul\":1980:2004   */\n      tag_29\n      jump\t// in\n    tag_60:\n        /* \"#utility.yul\":1973:1978   */\n      dup2\n        /* \"#utility.yul\":1970:2005   */\n      eq\n        /* \"#utility.yul\":1960:2023   */\n      tag_61\n      jumpi\n        /* \"#utility.yul\":2019:2020   */\n      0x00\n        /* \"#utility.yul\":2016:2017   */\n      dup1\n        /* \"#utility.yul\":2009:2021   */\n      revert\n        /* \"#utility.yul\":1960:2023   */\n    tag_61:\n        /* \"#utility.yul\":1907:2029   */\n      pop\n      jump\t// out\n        /* \"#utility.yul\":2035:2174   */\n    tag_34:\n        /* \"#utility.yul\":2081:2086   */\n      0x00\n        /* \"#utility.yul\":2119:2125   */\n      dup2\n        /* \"#utility.yul\":2106:2126   */\n      calldataload\n        /* \"#utility.yul\":2097:2126   */\n      swap1\n      pop\n        /* \"#utility.yul\":2135:2168   */\n      tag_63\n        /* \"#utility.yul\":2162:2167   */\n      dup2\n        /* \"#utility.yul\":2135:2168   */\n      tag_33\n      jump\t// in\n    tag_63:\n        /* \"#utility.yul\":2035:2174   */\n      swap3\n      swap2\n      pop\n      pop\n      jump\t// out\n        /* \"#utility.yul\":2180:2654   */\n    tag_13:\n        /* \"#utility.yul\":2248:2254   */\n      0x00\n        /* \"#utility.yul\":2256:2262   */\n      dup1\n        /* \"#utility.yul\":2305:2307   */\n      0x40\n        /* \"#utility.yul\":2293:2302   */\n      dup4\n        /* \"#utility.yul\":2284:2291   */\n      dup6\n        /* \"#utility.yul\":2280:2303   */\n      sub\n        /* \"#utility.yul\":2276:2308   */\n      slt\n        /* \"#utility.yul\":2273:2392   */\n      iszero\n      tag_65\n      jumpi\n        /* \"#utility.yul\":2311:2390   */\n      tag_66\n      tag_24\n      jump\t// in\n    tag_66:\n        /* \"#utility.yul\":2273:2392   */\n    tag_65:\n        /* \"#utility.yul\":2431:2432   */\n      0x00\n        /* \"#utility.yul\":2456:2509   */\n      tag_67\n        /* \"#utility.yul\":2501:2508   */\n      dup6\n        /* \"#utility.yul\":2492:2498   */\n      dup3\n        /* \"#utility.yul\":2481:2490   */\n      dup7\n        /* \"#utility.yul\":2477:2499   */\n      add\n        /* \"#utility.yul\":2456:2509   */\n      tag_34\n      jump\t// in\n    tag_67:\n        /* \"#utility.yul\":2446:2509   */\n      swap3\n      pop\n        /* \"#utility.yul\":2402:2519   */\n      pop\n        /* \"#utility.yul\":2558:2560   */\n      0x20\n        /* \"#utility.yul\":2584:2637   */\n      tag_68\n        /* \"#utility.yul\":2629:2636   */\n      dup6\n        /* \"#utility.yul\":2620:2626   */\n      dup3\n        /* \"#utility.yul\":2609:2618   */\n      dup7\n        /* \"#utility.yul\":2605:2627   */\n      add\n        /* \"#utility.yul\":2584:2637   */\n      tag_34\n      jump\t// in\n    tag_68:\n        /* \"#utility.yul\":2574:2637   */\n      swap2\n      pop\n        /* \"#utility.yul\":2529:2647   */\n      pop\n        /* \"#utility.yul\":2180:2654   */\n      swap3\n      pop\n      swap3\n      swap1\n      pop\n      jump\t// out\n\n    auxdata: 0xa26469706673582212205a7de7736fc2b78ebd52b6cc7d2e1dba6c1e3204355da711443a75ea37d4094664736f6c634300081a0033\n}\n",
				"bytecode": {
					"linkReferences": {},
					"object": "6080604052348015600e575f80fd5b5061026c8061001c5f395ff3fe608060405234801561000f575f80fd5b5060043610610034575f3560e01c806301f168a21461003857806306b034e914610069575b5f80fd5b610052600480360381019061004d9190610137565b61009a565b6040516100609291906101a7565b60405180910390f35b610083600480360381019061007e91906101f8565b6100c8565b6040516100919291906101a7565b60405180910390f35b5f8082840360ff1691508360ff1682116100b957815f915091506100c1565b5f6001915091505b9250929050565b5f80828401915083821015806100de5750828210155b156100ee57815f915091506100f6565b5f6001915091505b9250929050565b5f80fd5b5f60ff82169050919050565b61011681610101565b8114610120575f80fd5b50565b5f813590506101318161010d565b92915050565b5f806040838503121561014d5761014c6100fd565b5b5f61015a85828601610123565b925050602061016b85828601610123565b9150509250929050565b5f819050919050565b61018781610175565b82525050565b5f8115159050919050565b6101a18161018d565b82525050565b5f6040820190506101ba5f83018561017e565b6101c76020830184610198565b9392505050565b6101d781610175565b81146101e1575f80fd5b50565b5f813590506101f2816101ce565b92915050565b5f806040838503121561020e5761020d6100fd565b5b5f61021b858286016101e4565b925050602061022c858286016101e4565b915050925092905056fea26469706673582212205a7de7736fc2b78ebd52b6cc7d2e1dba6c1e3204355da711443a75ea37d4094664736f6c634300081a0033",
					"opcodes": "PUSH1 0x80 PUSH1 0x40 MSTORE CALLVALUE DUP1 ISZERO PUSH1 0xE JUMPI PUSH0 DUP1 REVERT JUMPDEST POP PUSH2 0x26C DUP1 PUSH2 0x1C PUSH0 CODECOPY PUSH0 RETURN INVALID PUSH1 0x80 PUSH1 0x40 MSTORE CALLVALUE DUP1 ISZERO PUSH2 0xF JUMPI PUSH0 DUP1 REVERT JUMPDEST POP PUSH1 0x4 CALLDATASIZE LT PUSH2 0x34 JUMPI PUSH0 CALLDATALOAD PUSH1 0xE0 SHR DUP1 PUSH4 0x1F168A2 EQ PUSH2 0x38 JUMPI DUP1 PUSH4 0x6B034E9 EQ PUSH2 0x69 JUMPI JUMPDEST PUSH0 DUP1 REVERT JUMPDEST PUSH2 0x52 PUSH1 0x4 DUP1 CALLDATASIZE SUB DUP2 ADD SWAP1 PUSH2 0x4D SWAP2 SWAP1 PUSH2 0x137 JUMP JUMPDEST PUSH2 0x9A JUMP JUMPDEST PUSH1 0x40 MLOAD PUSH2 0x60 SWAP3 SWAP2 SWAP1 PUSH2 0x1A7 JUMP JUMPDEST PUSH1 0x40 MLOAD DUP1 SWAP2 SUB SWAP1 RETURN JUMPDEST PUSH2 0x83 PUSH1 0x4 DUP1 CALLDATASIZE SUB DUP2 ADD SWAP1 PUSH2 0x7E SWAP2 SWAP1 PUSH2 0x1F8 JUMP JUMPDEST PUSH2 0xC8 JUMP JUMPDEST PUSH1 0x40 MLOAD PUSH2 0x91 SWAP3 SWAP2 SWAP1 PUSH2 0x1A7 JUMP JUMPDEST PUSH1 0x40 MLOAD DUP1 SWAP2 SUB SWAP1 RETURN JUMPDEST PUSH0 DUP1 DUP3 DUP5 SUB PUSH1 0xFF AND SWAP2 POP DUP4 PUSH1 0xFF AND DUP3 GT PUSH2 0xB9 JUMPI DUP2 PUSH0 SWAP2 POP SWAP2 POP PUSH2 0xC1 JUMP JUMPDEST PUSH0 PUSH1 0x1 SWAP2 POP SWAP2 POP JUMPDEST SWAP3 POP SWAP3 SWAP1 POP JUMP JUMPDEST PUSH0 DUP1 DUP3 DUP5 ADD SWAP2 POP DUP4 DUP3 LT ISZERO DUP1 PUSH2 0xDE JUMPI POP DUP3 DUP3 LT ISZERO JUMPDEST ISZERO PUSH2 0xEE JUMPI DUP2 PUSH0 SWAP2 POP SWAP2 POP PUSH2 0xF6 JUMP JUMPDEST PUSH0 PUSH1 0x1 SWAP2 POP SWAP2 POP JUMPDEST SWAP3 POP SWAP3 SWAP1 POP JUMP JUMPDEST PUSH0 DUP1 REVERT JUMPDEST PUSH0 PUSH1 0xFF DUP3 AND SWAP1 POP SWAP2 SWAP1 POP JUMP JUMPDEST PUSH2 0x116 DUP2 PUSH2 0x101 JUMP JUMPDEST DUP2 EQ PUSH2 0x120 JUMPI PUSH0 DUP1 REVERT JUMPDEST POP JUMP JUMPDEST PUSH0 DUP2 CALLDATALOAD SWAP1 POP PUSH2 0x131 DUP2 PUSH2 0x10D JUMP JUMPDEST SWAP3 SWAP2 POP POP JUMP JUMPDEST PUSH0 DUP1 PUSH1 0x40 DUP4 DUP6 SUB SLT ISZERO PUSH2 0x14D JUMPI PUSH2 0x14C PUSH2 0xFD JUMP JUMPDEST JUMPDEST PUSH0 PUSH2 0x15A DUP6 DUP3 DUP7 ADD PUSH2 0x123 JUMP JUMPDEST SWAP3 POP POP PUSH1 0x20 PUSH2 0x16B DUP6 DUP3 DUP7 ADD PUSH2 0x123 JUMP JUMPDEST SWAP2 POP POP SWAP3 POP SWAP3 SWAP1 POP JUMP JUMPDEST PUSH0 DUP2 SWAP1 POP SWAP2 SWAP1 POP JUMP JUMPDEST PUSH2 0x187 DUP2 PUSH2 0x175 JUMP JUMPDEST DUP3 MSTORE POP POP JUMP JUMPDEST PUSH0 DUP2 ISZERO ISZERO SWAP1 POP SWAP2 SWAP1 POP JUMP JUMPDEST PUSH2 0x1A1 DUP2 PUSH2 0x18D JUMP JUMPDEST DUP3 MSTORE POP POP JUMP JUMPDEST PUSH0 PUSH1 0x40 DUP3 ADD SWAP1 POP PUSH2 0x1BA PUSH0 DUP4 ADD DUP6 PUSH2 0x17E JUMP JUMPDEST PUSH2 0x1C7 PUSH1 0x20 DUP4 ADD DUP5 PUSH2 0x198 JUMP JUMPDEST SWAP4 SWAP3 POP POP POP JUMP JUMPDEST PUSH2 0x1D7 DUP2 PUSH2 0x175 JUMP JUMPDEST DUP2 EQ PUSH2 0x1E1 JUMPI PUSH0 DUP1 REVERT JUMPDEST POP JUMP JUMPDEST PUSH0 DUP2 CALLDATALOAD SWAP1 POP PUSH2 0x1F2 DUP2 PUSH2 0x1CE JUMP JUMPDEST SWAP3 SWAP2 POP POP JUMP JUMPDEST PUSH0 DUP1 PUSH1 0x40 DUP4 DUP6 SUB SLT ISZERO PUSH2 0x20E JUMPI PUSH2 0x20D PUSH2 0xFD JUMP JUMPDEST JUMPDEST PUSH0 PUSH2 0x21B DUP6 DUP3 DUP7 ADD PUSH2 0x1E4 JUMP JUMPDEST SWAP3 POP POP PUSH1 0x20 PUSH2 0x22C DUP6 DUP3 DUP7 ADD PUSH2 0x1E4 JUMP JUMPDEST SWAP2 POP POP SWAP3 POP SWAP3 SWAP1 POP JUMP INVALID LOG2 PUSH5 0x6970667358 0x22 SLT KECCAK256 GAS PUSH30 0xE7736FC2B78EBD52B6CC7D2E1DBA6C1E3204355DA711443A75EA37D40946 PUSH5 0x736F6C6343 STOP ADDMOD BYTE STOP CALLER "
				},
				"gasEstimates": {
					"creation": {
						"codeDepositCost": "124000",
						"executionCost": "169",
						"totalCost": "124169"
					},
					"external": {
						"adder(uint256,uint256)": "infinite",
						"subtractor(uint8,uint8)": "infinite"
					}
				},
				"methodIdentifiers": {
					"adder(uint256,uint256)": "06b034e9",
					"subtractor(uint8,uint8)": "01f168a2"
				}
			},
			"storageLayout": {
				"storage": [],
				"types": null
			},
			"userdoc": {
				"kind": "user",
				"methods": {},
				"version": 1
			}
		}
	}
}